:20000000020026FFFFFFFFFFFFFFFF024ACAFFFFFFFFFF32FFFFFFFFFFFFFF32FFFFFFFF56
:20002000FFFFFF02320F7581601230F6D2B3E490894FF0A3F0121000C2B40231321230D689
:20004000123106122BBE12101E121000124AB21213E5124A921213FF1230F6121000123034
:20006000F61210001201001208961231981210001230F61210001230F61210001230F6902C
:20008000894FE5FFF0A3F0121000C2B312014A1208CC1209B812102A1212E212134012109B
:2000A00000202B061214900200AD122BFC122698123FFE12318E123E9D123106908900E032
:2000C000FA122097908902E0FA1220ECC2B312316880B9FFFFFFFFFFFFFFFFFFFFFFFFFFFE
:2000E000FFFFFFFFFFFFFFFFFFFFFFFFFFFFFFFFFFFFFFFFFFFFFFFFFFFFFFFFFF0200001B
:2001000012010602011C75A08879307400F309B93CFBE47830F60408B83CFA2275200012BC
:200120000365D20F7806908C4A75F00C7420A4F0A3E5F0F0D80302013E05F0A380EEE490FB
:200140008C77F0753D10753E102212080D120156120511C20D22C2AFE53EB53D03D2AF2230
:20016000D2AF75A080A83DE2FA08B84C027810E2FE08B84C027810883DEA30E70302029B34
:20018000908005E0B4011A90800BE0C39A400A90800CE0C39A600A4008EA8EF01239F080CB
:2001A000B5EAF53FB418005004240C80F7B469004005C3940C80F6C39418908809F0EE609C
:2001C0000990889A205F027440F070030202B9D275C20375A08812036520077612039D405D
:2001E0006012046A50541203F2404FE530540F2430F9B9360050291203B212056B1208371E
:200200001206BE120454E53FD2E7F3E7D2E7F7300E0CC20E908917E06004D227D225215642
:20022000E730E709E3C2E775F0001239F090889AE0F5F0E53F1239F080C9B9360050EE80BF
:20024000B6B9360040B1E720E7DAE320E7DFE4F3808F12039D400C1203F24007E530540FCD
:200260002430F9E7D2E7F790800DE060051204165024E535540F2430F8E2C2E7F21203B28B
:2002800012056B1208371206BE120454E53FD2E7F3120837410FE53FF380F9908005E060F5
:2002A0000AB40203201B04EA123A99300F07120430C2752156D203215620073B12039D5083
:2002C00027B936005024300F071203D2E3C2E7F3E7C2E7F71204074007D20E300F02C275A5
:2002E000B9360050031208682156E53F75F0001239F0300FDB80D512039D5054E7C2E7F7B3
:20030000E96535540F70491204075046E3C2E7F390800DE070061204D102031F1204ADC209
:20032000E7F53FB418005004240C80F7B469004005C3940C80F6C39418908809F01203B259
:2003400012056B1208371206BE120454E3D2E7F32156300FFBE3C2E7F31203D2120868D290
:200360000EC27580EBE540201B1B20740CB4060302039875400602038EB40C030203987535
:20038000400C02038EB40603020398754006310690883C79301203D8A21B920722AE40756D
:2003A000A0887930E3653F547F600509DEF6C322D32290883C3007097E067488F0A3DEFC75
:2003C00022E954072582F582E5833400F5837488F02290883C3007097E067411F0A3DEFC6D
:2003E00022E954072582F582E5833400F5837411F022AE407830E6540F2430F9E730E7059F
:2004000008DEF3C322D322AE407830E620E70508DEF9C322D322AE407830E630E70BE23038
:20042000E707C2E7B53F00500508DEEED322C32275A0887930E3C2E7F3E7C2E7F709B93CE4
:200440000040F202044831067E0690883C7411F0A3DEFC22E540FE142430F8E9540FF5F045
:20046000D618B5F00122DEF801267830207413E6540F2430F9E330E73208B8360040F00290
:2004800004A9E6540FB4060050072430F9E330E71A08B83C0040EB7830E6540F2430F9E3AC
:2004A00030E70808B83C0040F0D322C32275F0007930E730E70AE3B5F0004004F5F0A801A7
:2004C00009B9360040ECE5F07002C322A900E3D3227835E6540F2430F9E720E70818B83012
:2004E0000050F0C322E3D32275A0889107501DC2E7F6E2C2E7F2B83600400875F00012395B
:20050000F080E5A90071D212086880DCC20EC27522203403020560300F0302056075A0888F
:200520001003422007237930AE40E720E70FE330E70BB93600500271D2E3C2E7F309DEEAAF
:2005400091074002C2750205607935E7540F2430F9E720E70BE330E707C2E7F371D2C275CE
:20056000A234920F229130C27580F590889AE0547F12063A90880030070C7E06F0A3DEFC72
:20058000F5F012059C22F5F0E954072582F582E5833400F583E5F0F012059C227440C5F043
:2005A000B5F000C2D55004D2D5C5F0C395F0FF90891BE0540F75F011A48FF0A430E7020536
:2005C000F07410A4FE30D50343F080200715E9540723247EF582E43488F583EEF0A3E5F020
:2005E000F0801190887EEEF0A3E5F0F0A3E582B48A0040F290891BE0C4540F75F011A4F5DA
:20060000F0EFA430E70205F030D506744095F08004744025F0FE200713E95407246CF58235
:20062000E43488F583200704EEF0800D90886CEEF0A3E582B4720040F6222401832215152E
:200640001515151515161616161616171717171717171818181818181919191919191A1AB2
:200660001A1A1A1A1A1B1B1B1B1B1B1C1C1C1C1C1C1C1D1D1D1D1D1D1E1E1E1E1E1E1F1FF2
:200680001F1F1F1F1F2020202020202121212121212122222222222223232323232324292D
:2006A0002F353A40464B51575C62686D73797F7F7F7F7F7F7F7F7F7F7F7F7F7F7F7FC208EA
:2006C000E9540723FC908809E075F020A4FA9088072401F0E5F03400A3F020070612073D40
:2006E0000206F57E067C0012073DDE030206F50C0CB20880F230192FE9540723FC90880989
:20070000E025494004300A01E475F020A4FA2007061207280207277E067C00120728DE0345
:200720000207270C0C80F422908C5EE5822CF582E5833400F583EAF0A3E5F0F0223008099E
:20074000908807E0FAA3E0F5F0908C4AE5822CF582E5833400F583EAF0A3E5F0F0908C6AEC
:20076000E5822CF582E5833400F583EAF0A3E5F0F022E8C0E0301939908C4A7B0C785E75B5
:20078000A08CE0F2A3E82401F8748C3400F5A0DBF1908C4A7B0C786A75A08CE0F2A3E8242D
:2007A00001F8748C3400F5A0DBF11207E5D0E0F822908C6A7B0C785E75A08CE0F2A3E824DE
:2007C00001F8748C3400F5A0DBF1908C6A7B0C784A75A08CE0F2A3E82401F8748C3400F578
:2007E000A0DBF180C575F000793075A088AE40E730E708E3B5F0004002F5F009DEF185F0AD
:200800004A754900908C767480F0C20A2230190A908C76E07004E54A70012275A08879302B
:20082000AE40E3654A600809DEF81207E580EB908C767480F080E330192DE53FD2E7FA90D2
:200840008C76E020E70BEAB54A00401BF54A020867740FF0E54A70058A4A020867C20AC3C5
:200860009A8A4A920AF5492230191F200D1C7930AE40E730E70302088B09DEF6754A00751F
:200880004900908C767480F0C20A22E53FD2E7B54AF81207E522754900754A00908C4A7B59
:2008A0000C785E75A08CE0F2A3E82401F8DBF7908C4A7B0C786A75A08CE0F2A3E82401F87F
:2008C000DBF77480908C76F07521002220190122908901E0C2E703C2E79008E09302091245
:2008E00056473E38332F2C29262422201E1D1B1A1817161514131211100F0E0E0D0C0B0B24
:200900000A0909080807060605050404030302020101FF7A00EAC333F9908C6AE58229F51D
:2009200082E5833400F583E0FDA3E0FE908C5EE58229F582E5833400F583E0FBA3E0FCECE8
:20094000C39E7005EBC39D600840030209540209720209AFEBC39FFBEC9400FC4033F015F9
:2009600082EBF0ECC39E7005EBC39D602C4022020999EBC32FFBEC3400FC20E414F01582E8
:20098000EBF0EEC39C7005EDC39C600D4003020999EEFCEDFBF0A3ECF0908C4AE58229F5EE
:2009A00082E5833400F583EBF0A3ECF00209AFBA050050030A211522E47841F608B849FB82
:2009C000908C45E0FCA3E0FD30E70CECF42401FCEDC2E7F43400FD908C47E0FB10E7057BC6
:2009E000000209EA60F9F4047BFF2CF545EB3DF546908C48E0FAA3E0FB30E70CEAF424018C
:200A0000FAEBC2E7F43400FB908C5CE02AFAA3E03BFB908C41E0FCA3E0FD30E70CECF42410
:200A200001FCEDC2E7F43400FDEC2AFAED3BFB908009E010E7057D00020A4160F9F4047D3E
:200A4000FF2AF543ED3BF544908C43E0FEA3E0FF754100E541C333908C4A2582F582E58357
:200A60003400F583E02543FCFAA3E03544FDFB30E703E4FAFBEAC4540FFAEBC454F04AFA63
:200A8000E541908C562582F582E5833400F583EAF0EE2CFCEF3DFD8C478D48120B46EC7507
:200AA000F003A4FCE5F0CD75F003A42DFD75A0A07815E541C40328F8904E3DE5822CF58257
:200AC000E5833DF583E493F2A3E49308F2A3E49308F2E5472545FCE5483546FD120B46ECE2
:200AE00075F003A4FCE5F0CD75F003A42DFD7811E541C403282402F8904E3DE5822CF58235
:200B0000E5833DF583E493FBA3E493FCA3E493FDA3E4932BFBA3E4933CFCA3E4933DC3135A
:200B2000F218EC13F218EB13F20541E541B406028003020A5390891EE0FA12243390891FF6
:200B4000E0FA1224732230E70AEC2480FCED3401FD80F3BD0C03BC4000400BECC39480FCDF
:200B6000ED9401FD80ED22FFFFFFFFFFFFFFFFFFFFFFFFFFFFFFFFFFFFFFFFFFFFFFFFFF80
:200B8000FFFFFFFFFFFFFFFFFFFFFFFFFFFFFFFFFFFFFFFFFFFFFFFFFFFFFFFFFFFFFFFF75
:200BA000FFFFFFFFFFFFFFFFFFFFFFFFFFFFFFFFFFFFFFFFFFFFFFFFFFFFFFFFFFFFFFFF55
:200BC000FFFFFFFFFFFFFFFFFFFFFFFFFFFFFFFFFFFFFFFFFFFFFFFFFFFFFFFFFFFFFFFF35
:200BE000FFFFFFFFFFFFFFFFFFFFFFFFFFFFFFFFFFFFFFFFFFFFFFFFFFFFFFFFFFFFFFFF15
:200FE000FFFFFFFFFFFFFFFFFFFFFFFFFFFFFFFFFFFFFFFFFFFFFFFFFFFFFFFFFF0200000C
:2010000090892375A0987800E0F5F00582E00582F208E5F0F208F20808B85CECF22275A0C8
:20102000897823E4F208B84DFB2275A0887942D2D5783CE230D51830E70302107130E60324
:201040000210C730E50302114D30E41B02116030E3030211C130E20302120430E10302125E
:201060007D30E003021290090908B842C610D5C12290885AE0FAE32AF3FBA309E0C0D0B483
:2010800010004005740FF0800C700ABA0007CA74011582F0CAD0D0FAE33AF3B40F12BBFFF8
:2010A0000F740FF31974FFF3E2540FD2E6F280B750EFB4010EBB8000500B7401F3197480F9
:2010C000F380A440F580A190885CE0FAA3E0B410004003740FF0FB90885EE070037401F02F
:2010E000FFF5F0E3C39AFC09E39BB410005052B408005005C313CC13CCCCA4CCACF08FF0FA
:20110000A42CFCE435F0FDE0B438005007C3ED13FDEC13FCBC0005BD00027C0119C3E39CC7
:20112000FCF309E39DF3CC9432CC94004006CC9ACC9B5017EBF319EAF3E2540FD2E5F20115
:2011400067E4F319F3E2540FF20167016890885CE0F3A309E0B410004003740FF0F3016894
:2011600090885FE070037401F0FFF5F009E3FBB40800500AC313FD19E3FA13021182FD19D8
:20118000E3FAA4ACF08FF0EDA42CFCE435F0F5F0E0B43800E5F05005C313CC13CC7005BC64
:2011A00000027C01CAC39CF309CB9AF34005700FBB320AE4F319F3E2540FF2016740F401C1
:2011C00068908860E0FAE32AF3FBA309E0C0D0B410004005740FF0800C700ABA0007CA74BD
:2011E000011582F0CAD0D0FAE33AF3B40F12BBFF0F740FF31974FFF3E254F0D2E2F201672C
:2012000050EF0168908862E0FAA3E0B410004003740FF0FB908864E070037401F0FFF5F0C2
:20122000E3C39AFC09E39BB410005045B408005005C313CC13CCCCA4CCACF08FF0A42CFCDD
:20124000E435F0FDBD0005BC00027C0119C3E39CFCF309E39DF3CC9432CC94004006CC9A27
:20126000CC9B5017EBF319EAF3E254F0D2E1F20167E4F319F3E254F0F20167016890886253
:20128000E0F3A309E0B410004003740FF0F30168908865E070037401F0FFF5F009E3FBB465
:2012A0000800500AC313FD19E3FA130212B2FD19E3FAA4ACF08FF0EDA42CFCE435F0700541
:2012C000BC00027C01CAC39CF309CB9AF34005700FBB320AE4F319F3E254F0F2016740F404
:2012E000016875A0887D00794290893374662DF8E22496500274FFF5F0746C2DF8E2A4C5CF
:20130000F0C333500274FFF5F0FFE3A4AAF0098FF0E3A42AFA500205F0E5F0B40F004005C6
:201320007AFF75F00FEA54F053F00F45F0C4C5F0EAC4F0A3E5F0F0BD0501220D09A380ACC2
:2013400075A0887E0090890AE075F004A4FF908896E0FCA3E0FD794E9089238FF0E3A4ABA5
:20136000F0098FF0E3A42BFBAAF050010A74722EF8EBF208EAF2EB2CCA3DFB748A2EF8E267
:20138000F5F008E2CA25F0CB3AFA747E2EF8E2F5F008E210E739CB25F0CA3BFBEAC394EC9A
:2013A000FAEB9404FB403854F0702FEA8BF053F00F54F045F0C4C5F0EAC4F4C5F0F4C5F0B1
:2013C000F0A3E5F0F0BE0A0122090E0EA3808CCBC395F0CA9BFB400780C2E4F5F080E1745C
:2013E000FFF5F080DBE475A088783CF208B842FB7842F208B84EFB784EF208B85AFB229056
:201400008959E47B10F0A3DBFC908C3974FFF0908C3AF0C214C215C271C272C273C212C234
:2014200013752500908C307480F0908AA5F0908AA7747FF0908C33E4F0752300D21D1216AA
:20144000B1C274908005E0B402028003B40304D2748007B404004002E4F090800AE0B4076A
:20146000004007B4FB005002E4F0E4FB121CB5908004E4F0908003E0B4050040037404F04F
:20148000121D897F01D31218AF908C367450F0221216B94015BC01081215D7600C021CECD1
:2014A000908952E0D2E0D2E1F022BF350CE4908899F0C27374FF021CECBF360CE49088999D
:2014C000F0C2737401021CECBF3400400122201862301C0302156A301E03021574301A057D
:2014E000C21A1216B1BF330BD213121669B4FF0D0215D6908C367450F0C213C21690A01123
:20150000E4F0A3E582B442F81218AF4016908004E0B40200400D908C37E014301F022432EB
:20152000123D63908C37E014301F022432123ABA0215D6BF3303021548201206121853020D
:2015400015D61216300215D6B21230121590B807E030E308C21212181F0215D61216620260
:2015600015D6C2181216B10215D6BF28005067121A968062BF2800405DBF2D47908C37E0B4
:20158000908953121F80908C32E0B42D36908005E0B4010302159AB403291204E890800B92
:2015A000E0B480004003747FF0FA121F5290800CE00AB502004002E4F0121F4CB272D271BD
:2015C0000215D6BF2F030215D3BF30030215D3C272C271121A9622908967E090895220E54C
:2015E0000B20E42AE0D2E0D2E1F0E422E0C2E1D2E0F0908899E004F020730CB4960040EABA
:20160000D273E4F0740122B40F0040DE80F4E0C2E0D2E1F0908899E004F020730CB4960032
:2016200040C8D273E4F074FF22B40F0040BC80F4D216908C36E075A080F8EF301F0630178F
:20164000060216493017024480F20874FFF2E8F0B86F004009C212C2181216B1C2161218E6
:20166000AF22908C367450F022D216908C36E075A080F8E2B4FF097450F0F8E2B4FF0122C8
:2016800010E71A6025B433005020C21FD21DFF08E8B86F0040027450F01216B122600BB467
:2016A00033005006C21DD21F80E4C21674FFF280C6908951E523F4F0221217C6400122BF61
:2016C00008004009EFC39407FFD30217C5BF030EB21B908907E0A21B92E7F00217C2BF0659
:2016E00023B21E201E13908921E0908C32F0122082908C37E0FF121FD1C21CC21AC271C2B7
:20170000720217C2BF011AB219908901E0A21992E7F0120772E4301902747F123A63021744
:20172000C2BF0432B21CC21EC21AC271C272301C03203A0A12197A1219ACA21C923A908C2C
:2017400032E0B428004008908921E0908C32F0FF121A960217C2BF0212B21AC21CC21E30D2
:201760001A06121F1F1204E80217C2BF0722201F05D2170217C2C217908004E0B4010302A9
:201780001785B4033D14F0908AAC7404F00217C2BF000AB218201802C2120217C2BF052448
:2017A000201D05D2170217C2C217908004E0B401030217B7B4030B14F0908AAC7408F002D4
:2017C00017C2D1B1C322790090895975A0B87C00E3F5F0E0FAE5F0F0A3E0FFE5F06AF0EF8E
:2017E000F455F05A54F060027C01E5F05F5A601FF5F0E9C39400C403FFE5F0C31340030F3E
:2018000080FABF40004003020000D302180E2209A3B9080302181C40B7020000C380EF908C
:201820008957741DF0A3741FF0908955741DF0A3740FF0908953745FF0A37451F02290895A
:20184000557419F0A3744FF0908953742FF0A3741DF0221219A4122082EFB433030218AAFB
:20186000301F0B122DDB40437B9079CD801090B807E030E305111F0218AB7B8079CDEF9094
:201880008C37F0121FD1EF75F023A429F9E5F03BF5A07D317C00908900121B93121992C22F
:2018A00018C21CC23A1216B1C217221219A4221219A4122082EF6005B433004003021979DC
:2018C000908C37F0121FD130530BC253EFC0E012276CD0E0FF301F35122DA65003021975F1
:2018E00030541AC254EFC0E075A0907870908970122D0BE2B5020B12276CD0E0FF9090CD60
:20190000802B122D4F80F0122D4F02192430551AC255EFC0E075A0807870908970122D0BBC
:20192000E2B502E312276CD0E0FF9080CDEF75F023A42582F582E5F03583F58375A08979A5
:20194000007D317CFF121B931219AC121000908907E0A2E7921B908901E0A2E79219120728
:20196000721216B1908C3275A0897821E2F0121992C217C3221219A4D32275A089780090E0
:201980008A71E2F5F0E0F2E5F0F008A3B8240040F12275A0897800908A71E2F008A3B8241A
:2019A0000040F722301704B21FB21D227F01BF28101224BE12212212250C122233220F80A6
:2019C000ED121BE2121DD1121C209019CEEF75F005A47312209780E61220B180E180DFFF05
:2019E000FFFF80DAFFFFFF12219780D212217580CD1220EC80C812210480C312211C80BE14
:201A00001221D180B91221DF80B412229E80AF80ADFFFFFF12220280A512221180A0809E3A
:201A2000FFFFFF12221B80961222298091808FFFFFFF122285808712229480F980F7FFFF54
:201A4000FF1222B780EF1222C580EA80E8FFFFFF80E3FFFFFF80DEFFFFFF1222CF80D6123F
:201A600022DE80D112230C80CC12232C80C712236880C21223A780BD1223C480B81223ED95
:201A800080B312240B80AE12243380A912247380A4122233809FBF330A113EEF908C32F047
:201AA000021AD8BF3102804BBF32028046BF2E03022BE475A089BF100122BF160122BF2F45
:201AC0000122BF300122908C37E0908953121F80EF908C32F0121FDDEFB42800500778218B
:201AE000F2908A92F0121BE2121DD1121C20121FEC80D2908C32EFF0121FDD74019089576C
:201B0000121F80BF3110122DDB5001229080F075A09079F08019122DA6407290B807E030EA
:201B2000E305111F021B8D9090F075A08079F07D007CFF121B93BF312775A0807870909069
:201B400070122D0BE2F075A0907870908970122D0BE2B5020612276C021B89122D4F80F5AC
:201B600075A0907870908070122D0BE2F075A0807870908970122D0BE2A21F9258C21FB5C9
:201B8000020C12276CA258921F7F0111AF22122D4F80EFC2D57E007B0020D504E0021BA260
:201BA000E493A3BE2216B5031FF309B9000205A030D504D083D0820DBD32D822F3090E2B09
:201BC000FBB900D505A080D1BC0003EB80DBD2D5C082C083902675E9C39422F950B715A013
:201BE00080B3121C688FF0E2BF01047D3F802FBF02067D030303801CBF03057D7F021C1EA4
:201C0000BF05057D7F021C1EBF1F02800F4010BF24057D0FC48007500630F0F67D0F5D22CE
:201C2000FE121C688FF0E2BF01047DC08033BF0208CE2323CE7D3F801CBF03057D80021C16
:201C400061BF05057D80021C61BF1F0280114015BF24077D0F5DCEC48008500930F0F47D41
:201C6000F05D4EF222CE80FBBF330575A080800DBF2800400575A080800375A089EF0483FB
:201C8000F8220000010507060203040809120A0B0C690D0E0F101169131415161718191AF9
:201CA0001B1B1C1C1D1D1E1F200002030D04050607080E0E0990800AE02B20E716B40700CD
:201CC00040027406F075F020A4908C5CF0E4A3F0021CEBB4FB00500274FBF0F40475F0206A
:201CE000A4908C5CF404F0A374FFF022FB301A0891B5121F1F021DC4307148307222908035
:201D00000CE02BB480004001E4F5F090800BE0B5F0004002E5F090800CF0121F4C021D40CF
:201D200090800BE02BB480004002747FF5F090800CE0B5F0005002E5F090800BF0121F52D9
:201D4000021DC4908C32E0FFB43305113E021D69B428005007203A043192D23A908C37E01D
:201D6000908953121F80121FDD71E210E7572B30E704F404D2E7FA121DD1908C38F09120B1
:201D8000121FEC121E39BF2A12908003E0901DC993F5F0E52B540F45F0F52BBF030FEAB4AA
:201DA0001C00500423021DAA241C123A2D908004E0B402004008BF28005003123E35BF2D71
:201DC000031204E822F40480A50F8FCFEFFF000000FAF5F05480C5F0547FFBEF0483803309
:201DE000A182E30F8C1FA1180AE39F9F9F9F9F7F9F9F9F9F9F7F9F9F86E39F9F9F9F8F8F08
:201E00008F8F8F8F0F0F878F81848183827F7F7F81813210E717CB6019C39B400CD2D57003
:201E200002C2D5EB45F0FA8003C2D5EA2230F7E6CBE47A0080E3021EAAEF60FAB4280280BF
:201E40006940028065901E4875F005A47312209780581220B180538051FFFFFF122129807A
:201E6000491221978044122175802F1220EC803A122104803512211C80301221D1800C12CF
:201E800021DF802612229E8021801F021F1A1222028017122211801280108074FF12221BD9
:201EA0008008122229800312223A22FF12228580F912229480F480F2FFFFFF1222B780EAF9
:201EC0001222C580E580E312250C80DE12223380D9FFFFFF1222CF80EE1222DE803C12236F
:201EE0000C80E912232C80C212236880BD1223A780231223C480231223ED80D012240B80A2
:201F0000C612243380A4122473809F122233809A122560809512212280901224BE808B9085
:201F2000800AE030E702240CC5F074FF908957F0A3C5F0243E83F09089557489F0A3744F78
:201F4000F0908953745FF0A3741DF022908955021F5590895775F00C8470057412021F6B4C
:201F6000B4010574E6021F6B245A83F0A3C5F0240283F02239380706195958292841400D96
:201F8000B4800A7D0075F0027408021FB87D0010E7027D01B46400400CC3946475F00A84C4
:201FA0007D00021FB670057DFF021FB875F00A847004CD44FECDC5F0240C83F0A3E5F024CC
:201FC0000583C2E04DF02221E71383C58909E30181908953EF3016024480F18022BF2D0137
:201FE00022BF2B0122908955EFF18022EABF2D03022030BF2B052404022041BF1903022020
:2020000028BF2803022028BF2A03022028BF2B03022028BF021330E1047404800C30E004F6
:20202000740880057410800104908957121F8022207136C274B402004002D274E4123A7E6A
:20204000EA2323F5F0242283908957F0A305F0E5F0241683F090895505F0E5F0240B83F04E
:20206000A305F0E5F0240283F022074F1D89510F1F893DE7518951891F891D89413D452922
:20208000E74590895774FFF0A3F0908955F0A3F0908953F0A3F022EA543F90A040B42008E3
:2020A000301F0974210220ACB42101E4F012257A22EA20E10F20E00674007B00800C748079
:2020C0007B01800674007B038000908C43F0A3EBF022EA75F084A4C4FB54F0CB540FC5F040
:2020E000C445F0CB90894BF0A3EBF022EA90A080B42008301F0974210220FFB42101E4F0FA
:2021000012257A22EAA2E792D5C2E775F020A4908C45F0A3E5F0A2D592E7F022EA908C4728
:20212000F02275A0897805E2FAEA601010E705240F02213E6006F4540F02213E7410F5F025
:20214000908C23E025F075F080A4C5F0FB54F0701DEBC454F0C5F0C4FB540F45F0F5F074E9
:20216000F05B908949F0A3E5F0F012257A2274F075F0FF80EDEAD2D510E702C2D59025D5A7
:202180001224B7908C27F0A3EB30D502D2E7F022908907E0540FFA908AA5E0C2D510E70A2B
:2021A000D2D575F07FC3C5F095F0B47F027480F5F0EAA4ABF075F040A4EBABF075F040A448
:2021C0002B908C48F0A3E5F0500104A2D592E7F022EA75F029A4908C1FF0A3E5F0F022EAF6
:2021E000B41F0774FF7BFF0221FA75F063A4C4FB540FC5F0C445F0CB54F0908943F0A3EBD6
:20220000F022EA9026151224B7908860F0A3EBF022EA90265593908864F022EA75F084A475
:20222000908862F0A3E5F0F022EA90265593908865F02290890FE0541FFA908AA7E0C33387
:20224000F5F0EAA4AAF0908C1CE0247F500274FFF5F0908C1BE010E72525F0500274FF8A75
:20226000F0A4C5F0C313C5F013C4FE54F0CE540FC5F0C445F0CE908947F0EEA3F022C5F01C
:20228000C395F080DAEA9026151224B790885AF0A3EBF022EA9026559390885EF022EA7589
:2022A000F084A4C4FB540FC5F0C445F0CB54F0908945F0A3EBF022EA75F084A490885CF05E
:2022C000A3E5F0F022EA9026559390885FF022EA9025D51224B7908C24F0A3EBF0228AF0B8
:2022E000908C31E0D2D510E702C2D5A4ABF075F040A4C5F0CB75F040A42B500205F0908C9B
:202300001DF0A3E5F030D5024480F022EA75F008A4F5F0908C31E010E70EC2D5A4908C1BD7
:20232000E5F0A2D592E7F022D2D580F0EA75F011A4FE75A088797E908800E075F040B5F0D7
:2023400000C2D55004D2D5C5F0C395F08EF0A47410A4F309E5F0540F30D5024480F3B98970
:2023600000400122A30980D2EA75F011A4FE75A088796C908800E0C394408EF0C2D5500480
:20238000F404D2D5A430E70205F030D506744095F08004744025F0F3B9710122A30980D619
:2023A00090891CE0540FFAEA23F5F0908C33E0A430E70205F0908C23E5F0F02290891CE09D
:2023C00054F0C4FA8AF0908C33E0A4ABF075F070A4EBABF075F070A42B500205F0908C21EC
:2023E000F0A3E5F0F02290891DE0540FFAEAC403F5F0908C33E0A430E70205F0908C1CE55C
:20240000F0F02290891DE054F0C4FAEA90242393F5F0908C33E0A430E70205F0908C26E561
:20242000F0F0220003060A0D1018202830406080A0C0E0EAD2D510E702C2D5FE75F00FC522
:20244000F0C395F075F054A4FCABF075A088798A908C56E030D50875F0A8C5F0C395F08EB9
:20246000F0A42CF309E5F03BF3B99500400122A30980E0EAD2D510E702C2D5FE740FC39EDD
:2024800075F006A4FB75A0887966908C56E030D50875F0A8C5F0C395F08EF0A454F0C5F032
:2024A000540F45F0C42B75F0CCA4E5F0F3B96B00400122A30980D623FB93A3CB9322908C7F
:2024C0001FE0A3FBE0FC908C21E0A32BFBE03CFC908C1DE0FDA3E010E719CD2BCBCD3CFC14
:2024E00054F07009EB908896F0A3ECF0227BFF7C0F80F1CDC3CB9BFBEC9DFC400A54F0601B
:20250000E37BFF7C0F80DDE4FBFC80D8908C24E0A3FBE0FC908C26E02BCBE43CCB908C1971
:20252000F0A3CBFCF0202733908C31E010E72D7E00B47F0104FDF5F0EBA4C2D530E702D2DD
:20254000D5ABF0EC8DF0A42BFBE435F0CBA2D533CB334E908C41CBF0A3EBF0227E8080D107
:202560003027F8908C27E0A3FBE07E8010E7027E00FC908C35E0C31380B7908900E0543F30
:20258000B4212C908902E0543FB4210B90894B74F0F0A374FFF022908949E0F454F0F5F08D
:2025A000A3E0F4C5F090894BF0A3E5F0F080E7908902E0543FB42114908949E0F5F0A3E0AB
:2025C000C5F090894BF0A3E5F0F080CA90894BE4F0A3F080C100000001000200030004002A
:2025E000050006000700080009000A000C000E001000120018002000280032004000500050
:20260000600070008800A000C000E0010001200140016001800FFF0C5C098F076105B404AA
:20262000680368028702090192013800F000BA008F006F0056004200330028001F00180095
:2026400012000E000B00080007000600050004000300020001FFC9A2856C584F4740383733
:20266000312C27221E1B181512100E0C0A080706050403020141000100000000016300003E
:2026800000001F001F0000001F000010000000000000000000000A1D908C39E0B40200407B
:2026A00026A21492E0A29312271830E017A21492E0A29312271830E00B400312272C908C92
:2026C000397401F00226D414F070F9A293921474FFF080F0908C3AE0B402004010A21592C0
:2026E000E0A29412271830E0037401F02214F070FBA21592E0A29412271830E013921540B0
:2027000009C234747F123A488006D234E4123A4874FF908C3AF080D4400930E003D2E022F2
:20272000C2E02230E003C2E022D2E022201832201C2F201E2C20132A908C37E004B4330070
:2027400040027401F0FF90A011E4F0A3E582B442F81218AF908C37E014301F022432123AB3
:20276000BA22121669B4FF0280F780DA90A800E4F0A3E583B4ACF890B000E4F0A3E583B424
:20278000B4F8751C80751D02751E00751AFE751B8F751980D270122803751C40751D047540
:2027A0001E01751AFE751B8E751940122803751C20751D08751E03751A7E751B8E7519208A
:2027C000122803751C10751D10751E07751A3E751B8E751910122803751C08751D20751E3B
:2027E0000F751A1E751B8E751908122803751C04751D20751E1F751A1E751B8E75190812C0
:20280000280322D2B490A040201F0574200228127421F0D2D575A08D7800E4F208B800FB8A
:202820007F80908970E0A36063F9E0605FA3B41F18FBE9B48017B51C18F20874088BF0A4F7
:20284000FBE51C03B50111801740E6800640E7800240E6DFD002288C4006EBC2D5022888C1
:202860007E08C389F0F97C00EC33FCE933F94003B5F007C395F0F9C3800250F7B3DEE9ECCF
:2028800033F5F0A4EBA4E5F0F20880C7E4F518F55BF55A75A08D7800AF19E4FAFBFCFDE2B1
:2028A00008F5F0E270030229689040CBE51D20F003022910A4F9A2F013C9AEF08518F0A47E
:2028C0001929500205F0CEA9F08518F0A429F5F0EE2582F58230F00205835002058330F118
:2028E00015E493F5F0E2A430E70205F0EA25F0FAEB3400022909E493F5F0E2A430E7020587
:20290000F0EAC395F0FAEB9400FB08DF92022968A4F9A2F013C9AEF08518F0A419295002A7
:2029200005F0CEA9F08518F0A429F5F0EE2582F58230F00205835002058320F115E493F5DA
:20294000F0E2A430E70205F0EC25F0FCED3400022965E493F5F0E2A430E70205F0ECC39511
:20296000F0FCED9400FD80A275A08EE51823F8EA2CFEEB3D30E70AF9EEF42401FEE9F434A4
:2029800080F9EEF208E9B2E7F2C2E7B55B0EEEB55A030229A2400BF55A0229A24004F55BD3
:2029A0008E5A851BA0E51823F404251AF8EAC39CFEEB9D30E70AF9EEF42401FEE9F4348021
:2029C000F9EEF208E9B2E7F2C2E7B55B0EEEB55A030229E1400BF55A0229E14004F55B8E07
:2029E0005A0518E518B519030229F801937A017B00C251C250022A7210D5F210700FE52DAA
:202A0000B55B05E52CB55A004003022A13855A2C855B2DE52CC3955AF8E52D955BA2E7138E
:202A2000F9E813252CF55AE9352DF55BE4A95BA85AE4A95BA85AFDFC7B6C7ACD7F11D251B9
:202A4000C250C3EC98FCED99FD4004C251800AC3EC28FCED39FDC38001D3EA33FAEB33FB80
:202A6000EC33FCED33FD305107BF04047F0CD250DFD075A08E751800C2D5755C00E51933AA
:202A8000F519E518C333F8E208F9E210E71BFC20501B8AF0A4FDE98BF0A42DFDE98AF0A48B
:202AA00030E7010DED25F08028D2D580E18AF0A4FDAEF0EC8BF0A42EFEE98BF0A42DFDEE2F
:202AC00035F0FEE98AF0A4ED25F030E7010EEE3400F9E55C20D51030E726F4042940033072
:202AE000E71E751F7F802220E71629400330E710751F81E9F404F55C8011F404F9022B0472
:202B0000E910D5F6C3955CF51F895C8518F0E51DA4FCADF0251E50010D2400F582ED34B06B
:202B2000F583E55C2480F0E5186015E582C3951DF58250021583E583C39408F583E51FF066
:202B4000EC251DFC50010D7400C39CFC74B49DF583EC251EF582500205837480C3955CF0C9
:202B6000E5187019E55C20E70730E60D747F800BB4C100500474818002255CF51FE583C3DF
:202B80009408F583E51FF00518E518B51929E582C3951DF58250021583E55C20E70730E67A
:202BA0000D7481800EB4C1005004747F8005F404C3955CF0C2B422B4800205A04182C2B4FC
:202BC0009089707800E4F0A3D8FC30540CC254D21FC21D122CDD12276CD21DC21F122CDD88
:202BE00012276C22C217D22BC22AC229C228122CDD12300DC222C223C224801F122E2C4013
:202C000003022E2BBB00028003022C34301803022E2B20290C202A0F202812122EEB022EAB
:202C20002B122F58022E2B122FF5022E2B122F00022E2B22EB7B00B40603022E0FB4070FFA
:202C4000201806201F51022E2B201F5F022E2BB4050F201806201D3F022E2B201D4D022EBB
:202C60002BB4012D201803022E2B302205202402D223D2B3D22C12276CC22C908900E054BC
:202C80003FFA122097908902E0543FFA1220ECC2B3C228E4FF8084B224202408302205D2FB
:202CA00023022CA6C22312301F80C7201F1290B807E030E30612181F022CDA90807080089E
:202CC000122DDB401590907075A0897870122D0BEAF0C2181216B1022E0F022E2B201F07B8
:202CE00075A0807870800A122DA640EE75A0907870908970122D0BE2B5020BC228E4FF9059
:202D00008C3B04F0810C122D4F80F07A00E2F5F06036B481005031A9000909B9B000500C60
:202D2000E360F6B5F0F3E4F309F380EEE5F0F008E2B420005013C5F025F02AFAA3E5F0F045
:202D4000A308B8B00040C62208E4F0A3F080F17900E582C39440F582E9240983F009A3B97C
:202D6000410040F422010A020503030403050206020702080109010A010B010C010D010E32
:202D8000010F0110011101120113011401150116011701180119011A011B011C011D011EBB
:202DA000011F0120014420B50C909000E0B4A807A3E0B40102C322122DBCD3229089577456
:202DC0005FF0A37419F09089557429F0A3745FF0908953741DF0A37439F02230B5D99090F6
:202DE00003E0F4F5F0F000E0B5F019A3E0F4F5F0F000E0B5F00E909000E0B4540CA3E0B45F
:202E00000107C32212181FD322122E0EC32222122082908C37E0FF121FD15325F0C271C2ED
:202E20001AC272908921E0908C32F0227D007C007B001217C64032BC0113908965E054C0B3
:202E400070027C001215D7607AFF022EB5908952E0D2E0D2E1F0908C40E0B40103022EC341
:202E6000C229C22AE4F0022EC3BF0800405CBF3508B228C229C22A8010BF3606D229C22A32
:202E80008007BF3718D22AC2297DFF908C40302907E0B40103048001E4F0022EB3BF3C0CA3
:202EA0007FFF908899E4F0C273022EB5BF3D147F0180EF7F00302209302406C228C22AC22A
:202EC00029D3227F00BD00EBC322BF0604B21E8011BF0702800CBF00067F01B2188003BFF9
:202EE00005E17DFFAB071216B180C8908C3BE02F600B30E70AEF20E704748080027401F0D6
:202F000012308C122F2F401C302819BF0003022F13D2222FB41F02800A400820E704741F38
:202F20008001E4F3908C3CF012309712303722908C3BE0FA7D0075A0897970BD2004E4D3B0
:202F400080110DE37007EAF3E409F38005B5020409E3C322090980E375A08C793D908C4083
:202F6000E0B40262EF605530E702F404FEE3FC202A0B908C3EE0B42000400280488FF0904B
:202F80008C3BE020F70804B4810040068037C3146033F0D222908C3CE02CB41F02800A40E4
:202FA0000820E704741F8001E4F0F12F4005908C3CE0F31230371EBE00B58003123037126E
:202FC000309712308C22B4000A7401F0E4F31230A280F27401F0E32F20E70BB40302800226
:202FE000400D74038009B4FD028002500274FDF31230C180D0D222908C3CE4F0908C3DF0DD
:20300000FC122F2F4002E4F3EF122F642275A0897870908C78E2F0A308B8B00040F72275A8
:20302000A0897870908C78E0F5F0E2F0E5F0F2A308B8B00040F1229089718583A0A9827A50
:2030400000E9F8E260030A800318F208B8AF0040028004080880ECEA908C3EF0123081BA51
:203060000002801CE37013E914F80808E2FDE4F2ED1818F208B8B0F280EA1A0909BA00E4ED
:2030800022908C3EE0908953121F8022908C3BE0908955121F8022908C3CE0908957121F44
:2030A00080229089577453F0A3749FF09089557451F0A37419F0908953741DF0A37489F0E1
:2030C00022908C3DE030E706F4047D0080027D01908957021FBF75D000E47860F6D8FDF6F1
:2030E00090889DE4F090895274FFF02275D000780779000230FA780D7900A4A4A4A4A4A418
:20310000A4D9F7D8F52220B50830560FC256023131205607D256D254023131909000E0B47B
:20312000A80DA3E0B40108205707D257D25422C2572290B801E0FF11ECE06F700BEF640727
:2031400070069042CB02314B02003D75A0807A807800E493F2A3740128F8500305A00ABA3B
:2031600087F0B8C7ED02003D90889DE0601B14F030750C908952E0D2E2D2E3F00231889079
:203180008952E0C2E2C2E3F0222075F380E5123CDB123E43123E56227857E4F60804B85AE1
:2031A000FA759850758DFF758921D2ACD2AFD2BCD28EC23FC23DC23EC240752FFFD232D230
:2031C00030755F00756000908898E4F0C242C244C23BC0D075D010E47900FBFCFDFED0D0B7
:2031E000908A95E4F0A3E582B4ADF8E583B48BF3908AA57480F0908AA7747FF0908C33E4D5
:20320000F0E4908AACF0908AADF0908A96F022C0D075D010C0E0C0F0C082C0831099061032
:203220009811020000023C4CD083D082D0F0D0E0D0D032755D00E599FD1237B0ED30E75BCD
:20324000B4F8004007B4FEE0D23580DCC23DB4F000402AB4F011305C1ED23DC23CC23E907D
:203260008A95E4F0023277B4F605D24E023277B4F705C23D0232777900C23880ABF854F002
:20328000F9908000E068540F7005D238023291C238C2398093E8FAD239808DF8303D0302CA
:2032A000342F908002E020E0052038024128B9800B3039E178000232C202334AB990FA3003
:2032C00039D3EA301A28B8000302329175F00C84E5F0B4070090800A400C75F00CC395F062
:2032E000121CDA0232E9121CC4121F1F80A3307103023313908010853E82EAF0A3E582B45B
:203300004C03908010E8F0E58204B44C027410F53E4191B800030232918AF03072159080AF
:203320000BE0B5F0004002E5F090800CF0121F4C02334590800CE0B5F0005002E5F090800B
:203340000BF0121F5241910233F7B9B0FA2039024195BA0111305E44D22EE8547803030302
:20336000908AA8F04191BA0519305E30D248908AA2E8B438004006C3941C02337FC303F066
:203380004191BA0709D246908AA7E8F04191BA400DD237D236B840005002C2364191BA41E7
:2033A0000E305E09D24AD249B80002C2494191303843BA7A09D24DB80002C24D4191BA7BC3
:2033C000047AB041F4BA7C0B908002E0C2E0F07AC041F4BA7D0B908002E0D2E0F07AD041F5
:2033E000F4BA7E0AE8540F44E0FA780041F4BA7F047AF041F44191B9C00C305D07E8908AB8
:20340000A6F0D24F4128B9D00E305EF8E8C333908AA4F0D24B4128B9E011303910305E0BA1
:20342000EAA2E6E833908AA5F0D24C41914195303C0302363D908A95E0FFBF0006B8401D3E
:20344000023635BF010A908000E0687010023635BF0215B8600A908AACE0D2E0F002363D3B
:20346000908A97E8F0023635BF0306B800EF023635BF0422B801E6908A97E0B44003023636
:203480003DB4410302363DB4420302363DB4610302363D023635BF0519908A97E0B40029CF
:2034A000908AACE0B866005006B86509D2E2F002363D0235A3B86406D2E3F002363DD2E1EA
:2034C000F0E8908A9EF002363DB40115908AACE0B80005D2E40234DDB801EBD2E5F002367E
:2034E00035B4100AE8908AA1F0C23E023635B42133B8001990B807E030E30D12181F908A3E
:20350000ADE0D2E5F002363D740002351DB801B6122DDB5006123D7902363D7432908AA0BE
:20352000F0023567B42088B86700400302363D908AA0E8F0B8640A90B807E020E3BD0235EC
:2035400052B8650B122DDB5009123D7902363DB86615908E00E8F0908A9A7401F0A3748E5A
:20356000F0755600023635B83200400B122DDB500F123D7902363D90B807E030E30281FB78
:20358000E55730E70302000075F024A424AD908A9AF0E5F0348BA3F0C23375550075560080
:2035A000023635BF0627908A97E0B41023203E09E8908AABF0D23E4128908AABE0C448907C
:2035C0008AAAF0908AA1E0908AA9F0D24502363DB4205C908AA0E0B467005061B4640050EF
:2035E00003023641302C0302363DB466121236E9908A9AE0B4022EA3E0B48F2902360E125F
:2036000036E9908A9AE0B4421CA3E0B48E17E55668908AAD7008D247E0D2E3023621E0D26E
:20362000E4F002363D203E05E55628F5564128B421F0023641908A95E004F04128D23C414E
:2036400028E555B4226F303E6C1236E9E556687014E557D2E7F5577857C608C6B859FB7869
:2036600057C602366DD233E557C2E7F557908A97E0B4210E908AA0E004B43203023682B4E9
:203680006412908AAD203306E0D2E3023691E0D2E4F080A9F0E55730E70302000075F024B6
:2036A000A424AD908A9AF0E5F0348BA3F075550075560041287025203E22908AA0E0F5F038
:2036C000908A9AE0FFA3E0F5838F82E5F0F0A3E5828583F0908A9AF0A3E5F0F01236E92027
:2036E0003E05E55628F55680CAE8540FF8908A9AE0A3FFE0F5838F82103E06E8C4F0D23EAD
:2037000022E048F8F0A3AF83E582908A9AF0A3EFF0055522FBE4908A96F0EB023731FB903A
:203720008000E0540F4BFB908A96E06B700122EBF0755E00FBC2AF303207303022C232D227
:2037400042C2AF303F1212376FD2AF203B0122C2AF12376FD2AF80F38B99D23FD2AF22C2C7
:20376000AF12376FD2AF203B01221239D180F0EE8CF0B5F003023792400BC395F0B4F6003D
:2037800040100237ACC5F0C395F0B40500401D0237920EBEFB0040027E00908AAEE5822E32
:2037A000F582E43583F583EBF0C23B22D23B80FBEDF8B4F800401EB4F903023987B4FD02E8
:2037C00080F8B4FE0280F3C5F0E52FB4FF02D244C5F002395BB4F0004049C277B4F00F75DD
:2037E0002FFF908898E4F0D244D230023987B4F10280ECB4F207908898F002385FB4F30796
:20380000908898F0023859B4F40280D3B4F50280CEB4F60D752FFF908898E4F0D244023950
:203820005B80BC30E74BC277908898F054F0B48003023837B49013908005E06022B4010245
:20384000809D30749A201B178095B4B003023896B4C003023859B4D006752F010238627525
:203860002F02C244304207C242908A96E4F002395BE52FB4FF0302398720773B20420302B5
:203880003922C242908A96E4F0204403023917908898E00238E9908000E06D540F70C09059
:2038A0008005E060BAB40203201BB4D276D244D277752F02023987E52FB4010B30106375E6
:2038C0002F02D244023987C210B87B004007D210152F023987104203307647C276908A9681
:2038E000E4F0908898E00238E9755E00FDC2AF303218C2AF303F0B123988D2AF2031F30201
:2039000039148D99C230D23F80F0C2AF123988D2AF2031F6023922908898E4F0752FFF022F
:203920003987E52FB4FF03023987D52F29D244908898E0B4F203023950B4F30302394A54B1
:20394000F0B4C00302394AB4D006752F01023953752F0202395BC24402395BE8755E00FD2E
:20396000C2AF303218C2AF303F0B123988D2AF2031F30239878D99C230D23F80F0C2AF12FB
:203980003988D2AF2031F622E560855FF0B5F0030239AD400BC395F0B4390040100239CCFC
:2039A000C5F0C395F0B4050040220239AD0560E560B43E004003756000908CB9E582256092
:2039C000F582E43583F583EDF0C23B22D23B0237AB908957745FF0A37419F090895574E753
:2039E000F0A37407F090895374E7F0A37461F02230400122C0D075D010FF90800AE02F30B8
:203A0000E70A20E60524F4023A0C240CFF90889BF090889CE5F0F0749012371E90889BE001
:203A200012373190889CE0123731D0D02230400122C0D075D010FF74B012371E7405123778
:203A400031EF123731D0D02230400122C0D075D010FF74B012371E7440123731EF12373171
:203A6000D0D02230400122C0D075D010FF74B012371E7441123731EF123731D0D0223040B8
:203A80000122C0D075D010FF74B012371E747A123731EF123731D0D02230400122C0D07569
:203AA000D010FF74B012371EEFC4540F4470123731EF540F123731D0D02230400122C0D0A7
:203AC00075D010FF74C012371EEF123731D0D02230400122C0D075D010FF74D012371EEFBB
:203AE000C313123731D0D02230400122C0D075D010FF74E012371EEFB47F027480C313FF95
:203B0000E492E6123731EF123731D0D0227400023B377401023B377460023B377440023B9A
:203B2000377441023B377442023B377443023B377410023B377461908A98F0D24074F012D9
:203B400037147440123731908000E0540F12373122908A9C74F0F07480023B64908A9C7434
:203B6000F0F07490A3F0755346755432D2437421C24180C3FF908A9C7470F07480023B8992
:203B8000FF908A9C7470F07490A3F0755382023BB5FF908A9C75F023B43200400B9432A4F1
:203BA00024F0F07490023BAEA424F0F0748035F0A3F0755346C241EF908A99F074206137EF
:203BC00074F7123731C24022908A98E0FFB46003023BDD12373174001237317401123731C3
:203BE000BF2003023BF9BF0003023C01BF1003023C09BF2103023BF922908A99E01237314B
:203C000022908A9FE012373122E507C2E7123731908C38E0C4540F123731908C38E0540FD2
:203C200012373122908A9CE0A3F8E0F5838882E0104108C4D241540F023C4B540FFFA3A8AC
:203C400083E582908A9CF0A3E8F0EF2220321E123C905005D23F023228D232123CB25009DB
:203C6000D23F908A96E4F080EDC23F80E9123CB25004D23F80E0304413D230123C90500854
:203C8000D23FC232D24280CEC23F80CAC23080F8EE8CF0B5F002C3220CBCFB0040027C0091
:203CA000908AAEEC2582F582E43583F583E0F599D322E560855FF0B5F002C322055FE55F6E
:203CC000B43E004003755F00908CB9E55F2582F582E43583F583E0F599D322E55EB45300E3
:203CE0004017755E0030300CC0D075D01074FE123731D0D0908A96E4F030400122908AACE0
:203D0000E0601210E03710E14310E22810E32810E46F10E513908AADE0600C10E30D10E44F
:203D20000D10E50D10E21322023DA3023DBB023DCA023DD9023DF8023E0D023E26F0C0D0E6
:203D400075D010713571C871C0D0D022F0908A9EE0F5F0B432004009122DA65004123D799F
:203D600022E5F0C0D075D010719171C89124123731D553F871C0D0D022908AADE0D2E2F09F
:203D800022F0908A997400F0C0D075D010715171C89124123731D553F8D55404C24371C068
:203DA000D0D022F0122DA65003B17922908A997401F0C0D075D010715C80D4F0C0D075D0EA
:203DC00010711C71C871C0D0D022F0C0D075D010712171C871C0D0D022F0C0D075D0107141
:203DE0002671C871C0D0D022F0C0D075D010713571C871C0D0D02222F0122DA65003B17956
:203E0000227465C0D075D0107180023E17F07464C0D075D010717471C89124123731D55358
:203E2000F871C0D0D022F0C0D075D010712B71C871C0D0D022C0D075D010713071C871C00A
:203E4000D0D02230400F30430C755346C241C0D075D010A191227857E610E70508B85AF895
:203E600022F675F024A424ADF582E5F0348BF583E0A3B43200401175F023C39432A424F026
:203E8000F9E5F03490023E9375F023A424F0F9E5F03480F5A07D317C00121B9322104B2BD4
:203EA000104C4C103750104A59104F7810461910470A104510102E0A10480422023F5902A2
:203EC0003FDA023FC4023F9E023F53123FEF908AA4E0908C33F01223BC1224BE1223E61222
:203EE00022331223A012212212240312250C22123FEF12219022123FEF203603D23422C2FD
:203F00003422123FEF201915304911D219908901E0A21992E7F01207721216B1222049FC3F
:203F2000C21980E9123FEF908AA6E0B432005009C217201D02D2178012B464004003E480CC
:203F4000EFC217201F02D217C3943204FFC2161218AF22123FEF022233123FEF75A08E781E
:203F600000E208B4660B908970D2D5123F8DD25322B4650B909070C2D5123F8DD25422B4B8
:203F8000640A908070C2D5123F8DD25522E2F008A320D506B8420040F422B801F022123F91
:203FA000EF908AAAC2AFE0FA908AA9E0FFD2AF6012B42800500DEA121DD120D506121C2002
:203FC000121E3922123FEF908AA8E0B420005009FA7F1C121C20121E3922123FEF908AA2DD
:203FE000E0C2E7F5F0908901E0548045F0F02290889DE02075047410F022740480FA302731
:2040000016908C2DE0F5F0908C35E0B5F00122E5F0F012256080F7908C31E0B54D0280EE11
:20402000E54DFFF012402F12407512409A80DFEFC33392D5FDB4FE0302406A908C19E08D80
:20404000F0A4AEF0A3E08DF0A42EFE740035F0F5F0908915E0B40604EE54E0FE908C41EEA9
:20406000F0E5F0A2D592E7A3F022908C19E0FEA3E0F5F080DCEFA2E792D5C2E7F5F0908979
:204080001AE0A454F0C4FEE5F0540FC44EC313A2D592E7908C1BF0022233908919E0F5F0F7
:2040A000EFD2D510E702C2D5A4AEF075F040A4C5F0CE75F040A42E500205F0908C1DF0E500
:2040C000F030D5024480A3F00224BE0203050608090B0D0E101113141617191B1C1E1F2144
:2040E00022242527292A2C2D2F303233353638393B3C3E3F4143444647494A4C4D4F50517D
:2041000053545657595A5C5D5F606263646667696A6C6D6E707173747577787A7B7C7E7F76
:20412000808283848687888A8B8C8E8F90929394959798999A9C9D9E9FA1A2A3A4A5A7A8EF
:20414000A9AAABACAEAFB0B1B2B3B4B5B7B8B9BABBBCBDBEBFC0C1C2C3C4C5C6C7C8C9CA1F
:20416000CBCCCDCECFD0D0D1D2D3D4D5D6D7D7D8D9DADBDCDCDDDEDFDFE0E1E2E2E3E4E434
:20418000E5E6E7E7E8E8E9EAEAEBECECEDEDEEEEEFF0F0F1F1F2F2F3F3F4F4F4F5F5F6F653
:2041A000F7F7F7F8F8F8F9F9F9FAFAFAFBFBFBFCFCFCFCFCFDFDFDFDFDFEFEFEFEFEFEFE99
:2041C000FFFFFFFFFFFFFFFFFFFFFFFFFFFFFFFFFFFFFFFFFFFEFEFEFEFEFEFEFDFDFDFD0E
:2041E000FDFCFCFCFCFCFBFBFBFAFAFAF9F9F9F8F8F8F7F7F7F6F6F5F5F4F4F4F3F3F2F2C3
:20420000F1F1F0F0EFEEEEEDEDECECEBEAEAE9E8E8E7E7E6E5E4E4E3E2E2E1E0DFDFDEDDA5
:20422000DCDCDBDAD9D8D7D7D6D5D4D3D2D1D0D0CFCECDCCCBCAC9C8C7C6C5C4C3C2C1C0A5
:20424000BFBEBDBCBBBAB9B8B7B5B4B3B2B1B0AFAEACABAAA9A8A7A5A4A3A2A19F9E9D9CA1
:204260009A99989795949392908F8E8C8B8A888786848382807F7E7C7B7A78777574737178
:20428000706E6D6C6A696766646362605F5D5C5A595756545351504F4D4C4A4947464443EF
:2042A000413F3E3C3B393836353332302F2D2C2A2927252422211F1E1C1B191716141311D8
:2042C000100E0D0B0908060503020000000105000000000000007F00000000000000000002
:2042E0000000000000000000000000000000000000000000000000000000000000000000BE
:204300000000000000000000000000000000000000000000000000000000000104070A0D7A
:2043200011FFFFFF80FF00FF00FF40FF00FF00FF00FF0000FB08FB00DF00DF0103050509E3
:204340000A0B07130A1D0A24082902000000000000000000000000000000000000000000A6
:20436000000000000000000000000000000000000000000000000000000000CEFF00B700B9
:20438000FD00FFFF00FF10FF01DF00FF00EF00FF00F50000FF00AF80EF02FF80FF02FF00B4
:2043A000FF00FFFF00FF00FF00FF00FF00FF00FF00FF0200EF00FF00FD00BF0D00090C0138
:2043C00081000C41001D000A111F19001900000A003100000000B400000900011D900D00D3
:2043E000060C0181000C3E001D000A111F19001900000A002B000000009200000900011E67
:2044000063180006000209000C30001F001E001F19001C00000A003700000000A30A00094C
:2044200000011C0A06000D0000000E072D001F001E03131F001B000308001E00000000B298
:2044400000000A82010A540A001E000100080C2F0015001F1B1F140D1D001517003B1400DE
:2044600000000F6B100F8F011CD81E1A1E00020013022E001D05120C061C041B00090600F4
:204480002E0300000064B00A0C8F000A1F1E001E0002040D071F001F0B1912141A031A00F4
:2044A0001117002E000000007040060F0D000A471E001E00820010023C05080B16150F1F06
:2044C0000304061F0F01470600000053400F0A8A050A4B5E801E008200108254000A04064B
:2044E0001F0F0C041F001E0D003A07010000AF00A00F86071C490800080003001F0C43071A
:204500001F1607100E1F010B001F14003003010000FD20070D0F010ABF6000088C030000AE
:20452000023F001F000F050719001000150A003500000000A103000007011CB70B00180CD5
:204540000189000C2E001D0019111E1F001800000A0037000000008200008708051C021C6A
:20456000001C0C8287000248030C001900141F0019000009002B00000000A10000850F00E3
:204580000A7E1C001C0C82810003500307001101131F001700020C002B00000000800000DB
:2045A0008200000A440A1D0B00020100013C001D0017071218001C00000C003116000000E5
:2045C000C400000082010D9A050004000100000253001F0009000017001A000000002F0006
:2045E000000000A130000A89001C6701000B000200000239001F00170600140016000E0017
:204600000037000000000FF0000600000D065F001F00000000013F0218040618151D041FFC
:20462000121A07002C00000000A100480307000AAB1C001B0000818B023B041902131300AE
:204640001F030E001F05003B11000000F6852B0583071CB607000713038700024B001300A8
:2046600014180E110014001F0C003C000000000000000488011C7A0700201383000002464C
:20468000000F00060304190014001F070016000000000000000C0A010DAE06001513008510
:2046A00000023D000B000F0000190009001F000008000001050000000F00020D7960000D4E
:2046C0008C000800023C011A000004001C0000001F000632000000000000000F0401270C2F
:2046E0000200020C00000002340717001314001F001F000800002F00000000700020000A20
:20470000011CB7073C078C82000B025006050017180F11040C001F0E003100000000000048
:20472000008200070A1013001300010005022D0B1700020D0D190315000009061D0D0000D3
:2047400000000050018F000AED0A000A0002010002440413000D00081F001A00000100348B
:2047600000000000D40060068F001CDC040004000200000739001F001106001F000F0014B6
:2047800000002F00000000FD50100D89011C01014B0100020000813E001F000A000014008E
:2047A0001D00070B002F00000000F6A0280900021C8E5E001E000300000C43020D0306172B
:2047C0000A1F0D1F010414043700000000A1300F0606011CAF14001E00020000013F0218EA
:2047E00000050B0A190A1F011A0E003C08040000F100480A07010DB354001E000200000C61
:204800003F020D00061F1B0F0F1F011A140032080400007100080A07010A4D5E001E8C0373
:20482000000001350011041A1412140E19000A140437000000000050000606011CA31E001F
:204840001E00040000013F000D0206170A190D1F000414043700000000A1100F0606011C3F
:20486000374B0020008186068233061E000414001F000B001300003C0A000000F9AF360F28
:2048800083001C7801001D0C008B000330001800100B071E0012001B0800310C01000057F7
:2048A0000F600A81010A0F0A000A0C01830002440513000D00081F001A000001003400005F
:2048C0000000D40060068F001C6A043C08050188008235111F0019000D19001C001F0C0046
:2048E0003500000000870F6F088F010A1F17001F0C00040001300017001200151C001800D4
:20490000000E002D06000000B00F00040F000D091F00150C0100000132001F000E151F1485
:20492000001900000C0024160000098700000007001EFDA00020000A8F010250000E001597
:20494000001F1C0011010014002C0000000094000F0F0F0004214900090005000E07230352
:204960001F0019101F1F0018001A16001D000300005600000A0A000AF44700180C0A8900E3
:204980000129001C040E151A1E00190000160037000000004500000807000A67420001877D
:2049A000028385032C021F0A18111D1F0212030F17003D100101030014130181011CE846AB
:2049C000002100008D8A013B00151710141D1F061E001F14000214000000C250100A0A0133
:2049E0000AF40E001113030700013B0017161F001F1F0E1F000A1502311000080DFFF00F15
:204A00000F89031A5906001518028C850240081215171F1B1F1215000E1C002D0B040100D3
:204A2000F716100F010204E8100010008300000C330C16161D0F1D1F0C1C041F1C0015005D
:204A400000000065600C09000208E261E30E188A029F821D041F19041F1F1F0B00001F1F76
:204A600000051F0000000000000F8F040AEA09001F11048C00013A0611000400061F000A2E
:204A800000000A003700000000A200000000050A40F7754B0074FF908951F0A3F09089575D
:204AA000F0A3F0908955F0A3F0908953F0A3F0D2AF22C28C758901758A48758CF4D2A9D21A
:204AC000AFD226C227D225D28C22C0D0C0E0C0F0C083C082C2D4D2D3C28C758A48758CF4A5
:204AE000D28C054B534B03E54B23FF301209302F06B40203024B22302B2F908954E0B45161
:204B000004EF024B29B43904EF024B29EF202F19202916202A13302806B4060D024B22B47B
:204B2000040774FFF5F0024B48307110202F0D207205B4060780EBB4040280E690895125FE
:204B400082F582E0F5F0A3E0CF237031302B0D30231B302F18D2F7D2F5024B6D30170E3065
:204B60002F07B2F7B2F5024B6DD2F7D2F5FA90800AE06008201A05302F02C2F2EA90988023
:204B80002582F582E5F0F0A3F0A3EFF0A3F030353E055DE55DB474004035C2351231E07517
:204BA0001900D24BD24CD246D22ED237C236790CE4908830F0A3D9FC7930F70409B93C00CD
:204BC00040F87411790690883CF0A3D9FCC275055ED54C08754C32A22FB3922F908920E0C9
:204BE000700EE490894DF0A3F0E475F0FF024C07B401257B017C13124CE1FBE490894DF074
:204C0000A3EBF0E475F000908931F0A3F0E5F090892FF0A3F0024CF4B4020C7B027C26122B
:204C20004CE180D6024CAAB403FA7B017C13124CE175F0E610E70CF4C2E7A4C5F0F4C2E71D
:204C4000024C48A4C5F0D2E7FBE54F24C0F54FE550340AF5505002B221302101F475F019B4
:204C600010E70CF4C2E7A4C5F0F4C2E7024C74A4C5F0D2E78BF030E70A10F72125F0B2E758
:204C8000024CA820F7F6F4C2E7C5F0F4C2E725F030E704E4024CA8F4C2E7024CA8C2E725B7
:204CA000F030E70274FFD2E761FAB4040D7B0A7CC0124CE1C313243F61FAB4050574FF02D8
:204CC0004CC6B40609E490894DF0A3F061FAB4070EE490894DF0A3F074FF75F00081076180
:204CE000E2E5512CF551E5523BF5525002B220302001F422302703024DE2202625908C29AB
:204D0000E4F0A3F0A3F0E4F54D908C76E06008B48003024D1714F0D082D083D0F0D0E0D013
:204D2000D032908916E0B4640040037463F023F9907E0093C90493F8908C29E028F0A3E06B
:204D400039F0F9A3E0340030E423FA908C2FE0F5F0C320E00720E308D3024D6030E301D3FB
:204D6000E54E13F54EC5F013F0EA908C2B540FF0FA908915E0C2D5B400028033B40102802F
:204D800046B40204D2D5803FB403028013B40404D2D5800CB405028045B406028040A106CF
:204DA000EA20E302A106747F30D502B2E7A107E933C4540FF9EA33A2E4C454F04930E701DA
:204DC000F45002D2E7A107E9C4540FF9EAC454F04930E703F4D2E730D502B2E7A107E54EA6
:204DE000A107302525C22574FF908C2CF0A3F0908C29E4F0A3F0A3F0F54D908C31F0FF129D
:204E0000407512409A122560A109908917E0541F23F8907F0093C80493F9908C2CE0C39994
:204E2000F0A3E098F0400281FDE4F0D225908C2CF0908C41F0A3F0C227D22681FDB81900A4
:204E4000C41900D01900DC1900E81900F419000019000C1A00181A00241A00301A003C1A3A
:204E600000481A00541A00611A006D1A00791A00851A00911A009E1A00AA1A00B61A00C374
:204E80001A00CF1A00DC1A00E81A00F41A00011B000D1B001A1B00261B00331B00401B00A6
:204EA0004C1B00591B00651B00721B007F1B008B1B00981B00A51B00B21B00BF1B00CB1BCA
:204EC00000D81B00E51B00F21B00FF1B000C1C00191C00261C00331C00401C004D1C005AAB
:204EE0001C00671C00741C00821C008F1C009C1C00A91C00B61C00C41C00D11C00DE1C0024
:204F0000EC1C00F91C00061D00141D00211D002F1D003C1D004A1D00571D00651D00731D50
:204F200000801D008E1D009B1D00A91D00B71D00C51D00D21D00E01D00EE1D00FC1D000ADB
:204F40001E00181E00261E00331E00411E004F1E005D1E006B1E007A1E00881E00961E00A6
:204F6000A41E00B21E00C01E00CE1E00DD1E00EB1E00F91E00081F00161F00241F00331FC9
:204F800000411F00501F005E1F006D1F007B1F008A1F00981F00A71F00B61F00C41F00D3EE
:204FA0001F00E21F00F01F00FF1F000E20001D20002C20003B20004920005820006720002A
:204FC000762000852000942000A32000B32000C22000D12000E02000EF2000FE20000E211D
:204FE000001D21002C21003C21004B21005A21006A2100792100892100982100A82100B7DA
:205000002100C72100D72100E62100F6210006220015220025220035220045220055220096
:20502000642200742200842200942200A42200B42200C42200D42200E52200F5220005233A
:2050400000152300252300362300462300562300662300772300872300982300A82300B989
:205060002300C92300DA2300EA2300FB23000C24001C24002D24003E24004E24005F2400E1
:20508000702400812400922400A32400B42400C52400D62400E72400F824000925001A250B
:2050A000002B25003C25004E25005F2500702500812500932500A42500B52500C72500D8EE
:2050C0002500EA2500FB25000D26001F2600302600422600542600652600772600892600F5
:2050E0009B2600AD2600BE2600D02600E22600F426000627001827002A27003D27004F2789
:2051000000612700732700852700982700AA2700BC2700CF2700E12700F4270006280019EE
:2051200028002B28003E28005028006328007628008828009B2800AE2800C12800D32800C0
:20514000E62800F928000C29001F29003229004529005829006B29007F2900922900A52994
:2051600000B82900CC2900DF2900F22900062A00192A002D2A00402A00542A00672A007B78
:205180002A008F2A00A22A00B62A00CA2A00DD2A00F12A00052B00192B002D2B00412B0032
:2051A000552B00692B007D2B00912B00A52B00BA2B00CE2B00E22B00F62B000B2C001F2C19
:2051C00000332C00482C005C2C00712C00852C009A2C00AF2C00C32C00D82C00ED2C000277
:2051E0002D00162D002B2D00402D00552D006A2D007F2D00942D00A92D00BE2D00D32D0033
:20520000E92D00FE2D00132E00282E003E2E00532E00692E007E2E00942E00A92E00BF2E00
:2052200000D42E00EA2E00002E00152F002B2F00412F00572F006D2F00832F00992F00AFCD
:205240002F00C52F00DB2F00F12F000730001D30003430004A30006030007730008D3000AB
:20526000A33000BA3000D03000E73000FE30001431002B31004231005931006F3100863137
:20528000009D3100B43100CB3100E23100F931001032002732003F32005632006D3200846B
:2052A00032009C3200B33200CB3200E23200FA32001133002933004133005833007033008A
:2052C000883300A03300B83300CF3300E73300FF330017340030340048340060340078349C
:2052E00000903400A93400C13400D93400F234000A35002335003B35005435006D3500852E
:2053000035009E3500B73500D03500E935000236001B36003436004D36006636007F3600AF
:20532000983600B23600CB3600E43600FE36001737003037004A37006437007D3700973715
:2053400000B13700CA3700E43700FE37001838003238004C38006638008038009A3800B4FA
:205360003800CE3800E938000339001D39003839005239006D3900873900A23900BD390009
:20538000D73900F239000D3A00283A00433A005E3A00793A00943A00AF3A00CA3A00E53A87
:2053A00000003B001C3B00373B00523B006E3B00893B00A53B00C03B00DC3B00F83B0013B7
:2053C0003C002F3C004B3C00673C00833C009F3C00BB3C00D73C00F33C000F3D002C3D0074
:2053E000483D00643D00813D009D3D00B93D00D63D00F33D000F3E002C3E00493E00663ED4
:2054000000823E009F3E00BC3E00D93E00F63E00143F00313F004E3F006B3F00893F00A642
:205420003F00C33F00E13F00FE3F001C40003A4000574000754000934000B14000CF4000D9
:20544000ED40000B4100294100474100654100834100A24100C04100DE4100FD41001B42D9
:20546000003A4200594200774200964200B54200D44200F342001243003143005043006F77
:2054800043008E4300AD4300CD4300EC43000B44002B44004A44006A44008A4400A9440014
:2054A000C94400E94400094500294500494500694500894500A94500C94500E945000A4672
:2054C000002A46004B46006B46008C4600AC4600CD4600EE46000F47002F4700504700713B
:2054E0004700924700B34700D54700F647001748003848005A48007B48009D4800BE48000A
:20550000E04800024900244900454900674900894900AB4900CD4900EF4900124A00344A7F
:2055200000564A00794A009B4A00BE4A00E04A00034B00254B00484B006B4B008E4B00B160
:205540004B00D44B00F74B001A4C003D4C00604C00844C00A74C00CB4C00EE4C00124D0091
:20556000354D00594D007D4D00A14D00C54D00E94D000D4E00314E00554E00794E009D4ED4
:2055800000C24E00E64E000B4F002F4F00544F00794F009D4F00C24F00E74F000C500031C4
:2055A00050005650007B5000A05000C65000EB50001151003651005C5100815100A7510089
:2055C000CD5100F351001852003E52006452008B5200B15200D75200FD52002453004A534D
:2055E00000715300975300BE5300E553000B5400325400595400805400A75400CF5400F63A
:2056000054001D55004455006C5500935500BB5500E355000A56003256005A5600825600CA
:20562000AA5600D25600FA56002257004B57007357009C5700C45700ED57001558003E58B8
:2056400000675800905800B95800E258000B59003459005D5900875900B05900D959000393
:205660005A002D5A00565A00805A00AA5A00D45A00FE5A00285B00525B007C5B00A75B002C
:20568000D15B00FC5B00265C00515C007B5C00A65C00D15C00FC5C00275D00525D007D5DED
:2056A00000A95D00D45D00FF5D002B5E00565E00825E00AE5E00D95E00055F00315F005DA6
:2056C0005F00895F00B65F00E25F000E60003B6000676000946000C06000ED60001A610081
:2056E000476100746100A16100CE6100FB6100296200566200846200B16200DF62000C63B4
:20570000003A6300686300966300C46300F263002164004F64007D6400AC6400DA6400093C
:205720006500386500666500956500C46500F36500236600526600816600B16600E066009C
:205740001067003F67006F67009F6700CF6700FF67002F68005F68008F6800C06800F068DF
:2057600000216900516900826900B36900E46900156A00466A00776A00A86A00DA6A000B20
:205780006B003C6B006E6B00A06B00D26B00036C00356C00676C009A6C00CC6C00FE6C004B
:2057A000316D00636D00966D00C86D00FB6D002E6E00616E00946E00C76E00FA6E002E6F34
:2057C00000616F00956F00C86F00FC6F00307000647000987000CC7000007000347100681E
:2057E00071009D7100D171000672003B7200707200A57200DA72000F730044730079730059
:20580000AF7300E473001A74004F7400857400BB7400F174002775005D7500947500CA757B
:20582000000176003776006E7600A57600DB7600127700497700817700B87700EF770027F7
:2058400078005E7800967800CE78000679003E7900767900AE7900E679001F7A00577A0091
:20586000907A00C87A00017B003A7B00737B00AC7B00E57B001F7C00587C00927C00CB7C72
:2058800000057D003F7D00797D00B37D00ED7D00277E00617E009C7E00D67E00117F004C6C
:2058A0007F00877F00C27F00FD7F00388000738000AF8000EA80002681006281009D8100BA
:2058C000D981001582005282008E8200CA8200078300438300808300BD8300FA83003784DC
:2058E00000748400B18400EF84002C85006A8500A78500E585002386006186009F8600DE3F
:2059000086001C87005A8700998700D88700178800568800958800D4880013890052890091
:20592000928900D28900118A00518A00918A00D18A00118B00528B00928B00D38B00138C72
:2059400000548C00958C00D68C00178D00598D009A8D00DB8D001D8E005F8E00A18E00E321
:205960008E00258F00678F00A98F00EC8F002E9000719000B49000F790003A91007D9100D9
:20598000C091000492004792008B9200CE92001293005693009B9300DF93002394006894E9
:2059A00000AC9400F194003695007B9500C095000596004B9600909600D696001C970062CF
:2059C0009700A89700EE97003498007A9800C198000899004E9900959900DC9900249A004C
:2059E0006B9A00B29A00FA9A00419B00899B00D19B00199C00619C00AA9C00F29C003B9DF8
:205A000000849D00CC9D00159E005F9E00A89E00F19E003B9F00849F00CE9F0018A00062F3
:205A2000A000ACA000F7A00041A1008CA100D6A10021A2006CA200B7A20003A3004EA3009C
:205A400099A300E5A30031A4007DA400C9A40015A50061A500AEA500FBA50047A60094A645
:205A600000E1A6002FA7007CA700C9A70017A80065A800B3A80001A9004FA9009DA900EB3C
:205A8000A9003AAA0089AA00D8AA0027AB0076AB00C5AB0015AC0064AC00B4AC0004AD007F
:205AA00054AD00A4AD00F4AD0045AE0095AE00E6AE0037AF0088AF00D9AF002BB0007CB07D
:205AC00000CEB0001FB10071B100C3B10016B20068B200BBB2000DB30060B300B3B3000654
:205AE000B40059B400ADB40000B50054B500A8B500FCB50050B600A4B600F9B6004EB700A4
:205B0000A2B700F7B7004CB800A2B800F7B8004DB900A2B900F8B9004EBA00A4BA00FBBA44
:205B20000051BB00A8BB00FFBB0055BC00ADBC0004BD005BBD00B3BD000BBE0062BE00BBD5
:205B4000BE0013BF006BBF00C4BF001CC00075C000CEC00027C10081C100DAC10034C200AE
:205B60008EC200E8C20042C3009CC300F7C30051C400ACC40007C50062C500BDC50019C634
:205B80000075C600D0C6002CC70088C700E5C70041C8009EC800FBC80057C900B5C9001264
:205BA000CA006FCA00CDCA002BCB0089CB00E7CB0045CC00A4CC0002CD0061CD00C0CD0044
:205BC0001FCE007FCE00DECE003ECF009ECF00FECF005ED000BED0001FD10080D100E0D1EA
:205BE0000042D200A3D20004D30066D300C8D3002AD4008CD400EED40050D500B3D500168E
:205C0000D60079D600DCD60040D700A3D70007D8006BD800CFD80033D90098D900FCD90001
:205C200061DA00C6DA002BDB0091DB00F6DB005CDC00C2DC0028DD008EDD00F5DD005BDEF5
:205C400000C2DE0029DF0090DF00F8DF005FE000C7E0002FE10097E10000E10068E200D1EC
:205C6000E2003AE300A3E3000CE40076E400DFE40049E500B3E5001DE60088E600F2E60083
:205C80005DE700C8E70034E8009FE8000BE90076E900E2E9004EEA00BBEA0027EB0094EBE2
:205CA0000001EC006EEC00DCEC0049ED00B7ED0025EE0093EE0001EF0070EF00DFEF004EFC
:205CC000F000BDF0002CF1009CF1000BF2007BF200EBF2005CF300CCF3003DF400AEF40055
:205CE0001FF50091F50002F60074F600E6F60058F700CBF7003DF800B0F80023F90096F933
:205D0000000AFA007DFA00F1FA0065FB00DAFB004EFC00C3FC0038FD00ADFD0022FE009848
:205D2000FE000DFF0083FF00F9FF00700001E600015D0101D401014C0201C302013B0301FE
:205D4000B303012B0401A304011C05019405010D06018706010007017A0701F407016E085A
:205D600001E80801620901DD0901580A01D30A014F0B01CA0B01460C01C20C013F0D01BB42
:205D80000D01380E01B50E01320F01B00F012D1001AB1001291101A81101261201A5120108
:205DA000241301A31301231401A21401221501A21501231601A41601241701A617012718E7
:205DC00001A818012A1901AC19012F1A01B11A01341B01B71B013A1C01BD1C01411D01C569
:205DE0001D01491E01CE1E01521F01D71F015C2001E22001672101ED2101732201FA2201FC
:205E00008023010724018E24011525019D2501252601AD2601352701BE2701462801CF2838
:205E200001592901E229016C2A01F62A01802B010B2C01962C01212D01AC2D01382E01C320
:205E40002E014F2F01DC2F01683001F530018231010F32019D32012B3301B933014734013B
:205E6000D63401643501F43501833601133701A23701333801C33801543901E53901763AAF
:205E800001073B01993B012B3C01BD3C01503D01E23D01753E01093F019C3F01304001C4CB
:205EA0004001584101ED4101824201174301AD4301424401D844016E45010546019C460140
:205EC000334701CA4701624801FA48019249012A4A01C34A015C4B01F54B018F4C01294DAD
:205EE00001C34D015D4E01F84E01934F012E5001C950016551010152019D52013A5301D7C1
:205F00005301745401125501AF55014D5601EC56018A5701295801C85801685901085A0166
:205F2000A85A01485B01E95B018A5C012B5D01CC5D016E5E01105F01B25F01556001F8607E
:205F4000019B61013F6201E362018763012B6401D064017565011A6601C066016667010C4E
:205F60006801B368015A6901016A01A86A01506B01F86B01A06C01496D01F26D019B6E010B
:205F8000456F01EF6F01997001437101EE7101997201447301F073019C7401497501F5756C
:205FA00001A276014F7701FD7701AB7801597901087A01B77A01667B01157C01C57C0175B4
:205FC0007D01257E01D67E01877F01398001EA80019C81014F8201018301B4830168840184
:205FE0001B8501CF8501848601388701ED8701A288015889010E8A01C48A017B8B01328CB1
:2060000001E98C01A18D01598E01118F01C98F018290013B9101F59101AF9201699301242E
:206020009401DF94019A9501569601129701CE97018A9801479901059A01C29A01809B010D
:206040003F9C01FD9C01BC9D017C9E013B9F01FB9F01BCA0017DA1013EA201FFA201C1A37C
:206060000183A40146A50108A601CCA6018FA70153A80117A901DCA901A1AA0166AB012CE5
:20608000AC01F2AC01B8AD017FAE0146AF010EB001D5B0019EB10166B2012FB301F8B301ED
:2060A000C2B4018CB50156B60121B701ECB701B8B80184B90150BA011CBB01E9BB01B7BCF3
:2060C0000184BD0152BE0121BF01F0BF01BFC0018EC1015EC2012FC301FFC301D0C401A2FD
:2060E000C50174C60146C70118C801EBC801BFC90192CA0166CB013BCC0110CD01E5CD014B
:20610000BBCE0191CF0167D0013ED10115D201EDD201C5D3019DD40176D5014FD60128D728
:206120000102D801DDD801B7D90192DA016EDB014ADC0126DD0103DE01E0DE01BDDF019B81
:20614000E00179E10158E20137E30117E401F7E401D7E501B8E60199E7017AE8015CE9014F
:206160003FEA0121EB0104EC01E8EC01CCED01B0EE0195EF017AF00160F10146F2012DF32E
:206180000113F401FBF401E2F501CBF601B3F7019CF80185F9016FFA0159FB0144FC012F7E
:2061A000FD011BFE0107FF01F3FF01E00002CD0102BB0202A9030297040286050276060206
:2061C000650702550802460902370A02290B021B0C020D0D02000E02F30E02E70F02DB10ED
:2061E00002D01102C51202BA1302B01402A715029D16029517028C18028519027D1A0276D6
:206200001B02701C026A1D02641E025F1F025A20025621025222024F23024C24024A250284
:20622000482602462702452802452902452A02452B02462C02472D02492E024B2F024E3060
:20624000025131025532025933025D34026235026836026E37027438027B3902823A028A82
:206260003B02933C029B3D02A53E02AF3F02B94002C44102CF4202DA4302E74402F34502C6
:206280000047020E48021C49022B4A023A4B024A4C025A4D026A4E027B4F028D50029F5162
:2062A00002B25202C55302D85402EC55020157021658022B5902415A02585B026F5C028755
:2062C0005D029F5E02B75F02D06002EA61020463021F64023A65025566027167028E6802AB
:2062E000AB6902C96A02E76B02066D02256E02456F02657002867102A77202C97302EB74B7
:20630000020E76023277025678027A79029F7A02C57B02EB7C02117E02387F02608002880B
:206320008102B18202DA83020485022E8602598702858802B18902DD8A020A8C02388D0210
:20634000668E02948F02C49002F39102249302559402869502B89602EA97021E9902519A0E
:2063600002859B02BA9C02EF9D02259F025CA00293A102CAA20202A4023BA50274A602AE57
:20638000A702E8A80223AA025FAB029BAC02D7AD0215AF0252B00291B102D0B2020FB402C1
:2063A0004FB50290B602D1B70213B90256BA0298BB02DCBC0220BE0265BF02AAC002F0C113
:2063C0000237C3027EC402C6C5020EC70257C802A0C902EACA0235CC0280CD02CCCE0218CF
:2063E000D00265D102B3D20201D40250D502A0D602F0D70240D90292DA02E4DB0236DD026E
:2064000089DE02DDDF0231E10286E202DCE30232E50289E602E0E70238E90291EA02EAEB4E
:206420000244ED029FEE02FAEF0256F102B2F2020FF4026DF502CBF6022AF8028AF902EAFF
:20644000FA024BFC02ACFD020FFF02710003D501033903039E0403030603690703D00803B1
:20646000370A039F0B03070D03710E03DA0F03451103B012031C1403891503F61603641829
:2064800003D21903411B03B11C03221E03931F03042103772203EA23035E2503D226034847
:2064A0002803BD2903342B03AB2C03232E039C2F031531038F320309340385350301370325
:2064C0007D3803FB3903793B03F73C03773E03F73F03784103F942037B4403FE4503824724
:2064E000030649038B4A03114C03974D031E4F03A650032F5203B85303425503CC56035816
:206500005803E45903715B03FE5C038C5E031B6003AB61033B6303CC64035E6603F1670344
:20652000846903186B03AD6C03426E03D86F036F7103077303A07403397603D377036D7970
:2065400003097B03A57C03427E03DF7F037E81031D8303BD84035D8603FE8703A1890343A2
:206560008B03E78C038B8E03319003D691037D9303259503CD96037698031F9A03CA9B0362
:20658000759D03219F03CEA0037CA2032AA403D9A50389A7033AA903EBAA039EAC0351AE42
:2065A0000304B003B9B1036EB30325B503DCB60393B8034CBA0305BC03C0BD037ABF033611
:2065C000C103F3C203B0C4036EC6032DC803EDC903AECB036FCD0331CF03F5D003B8D203CD
:2065E0007DD40343D60309D803D0D90398DB0361DD032ADF03F5E003C0E2038CE40359E6A9
:206600000327E803F5E903C5EB0395ED0366EF0338F1030BF303DEF403B3F60388F8035E65
:20662000FA0335FC030DFE03E6FF03C001049A03047505045107042E09040C0B04EB0C04A2
:20664000CB0E04AB10048C12046F14045216043618041A1A04001C04E71D04CE1F04B6218F
:2066600004A023048A25047527046129044D2B043B2D042A2F04193104093304FA3404ED7C
:206680003604E03804D43A04C83C04BE3E04B54004AC4204A544049E4604984804934A0405
:2066A000904C048D4E048B50048A52048954048A56048C58048E5A04925C04965E049B60DE
:2066C00004A26204A96404B16604BA6804C46A04CF6C04DB6E04E87004F672040575041543
:2066E0007704257904377B044A7D045D7F047281048783049D8504B58704CD8904E78B04E1
:20670000018E041C9004399204569404749604939804B39A04D59C04F79E041AA1043EA33D
:206720000463A50489A704B0A904D8AB0401AE042CB00457B20483B404B0B604DEB8040D45
:20674000BB043DBD046EBF04A1C104D4C30408C6043DC80473CA04ABCC04E3CE041CD1040D
:2067600057D30492D504CED7040CDA044ADC048ADE04CAE0040CE3044EE50492E704D7E942
:20678000041DEC0463EE04ABF004F4F2043EF50489F704D5F90423FC0471FE04C000051012
:2067A0000305620505B40705080A055C0C05B20E05091105611305BA15051418056F1A0531
:2067C000CB1C05291F05872105E72305472605A928050C2B05702D05D52F053B3205A2344D
:2067E000050B3705743905DF3B054A3E05B74005254305944505054805764A05E84C055CFC
:206800004F05D15105465405BE5605365905AF5B05295E05A56005226305A065051F6805EC
:206820009F6A05206D05A36F05267205AB7405317705B87905407C05CA7E05558105E083B1
:20684000056D8605FB88058B8B051C8E05AD9005409305D495056A9805009B05989D05314F
:20686000A005CBA20566A50503A805A0AA053FAD05E0AF0581B20524B505C7B7056CBA05A9
:2068800013BD05BABF0563C2050DC505B8C70564CA0512CD05C1CF0571D20522D505D5D784
:2068A0000589DA053EDD05F4DF05ACE20564E5051FE805DAEA0597ED0555F00514F305D40A
:2068C000F50596F80559FB051DFE05E30006AA03067206063B0906060C06D20E069F11069A
:2068E0006E14063E17060F1A06E11C06B51F068A2206602506382806112B06EC2D06C730AE
:2069000006A43306823606623906433C06253F06094206EE4406D44706BC4A06A54D068F09
:2069200050067B5306685606565906465C06375F062A62061D6506136806096B06016E06E6
:20694000FA7006F57306F17606EF7906EE7C06EE7F06EF8206F28506F68806FC8B06048F03
:20696000060C92061695062298062E9B063C9E064CA1065DA4066FA70683AA0699AD06AF09
:20698000B006C8B306E1B606FCB90619BD0636C00656C30677C60699C906BCCC06E2CF0681
:2069A00008D30630D6065AD90685DC06B1DF06DFE2060EE6063FE90671EC06A5EF06DAF2FC
:2069C0000611F60649F90683FC06BEFF06FB0207390607790907BA0C07FD0F07411307877F
:2069E0001607CE1907171D07612007AD2307FA2607492A07992D07EB30073F340794370716
:206A0000EA3A07423E079C4107F84407544807B24B07124F07735207D655073B5907A15CF8
:206A200007096007726307DD6607496A07B76D072771079874070B78077F7B07F57E076DB0
:206A40008207E68507608907DD8C075B9007DA93075C9707DE9A07639E07E9A10771A50746
:206A6000FAA80785AC0712B007A0B30730B707C2BA0755BE07E9C10780C50718C907B2CC24
:206A8000074DD007EBD3078AD7072ADB07CCDE0770E20716E607BDE90766ED0710F107BDB9
:206AA000F4076BF8071BFC07CCFF077F0308340708EA0A08A30E085D1208181608D619085B
:206AC000951D08562108192508DD2808A32C086B3008353408003808CD3B089C3F086D435C
:206AE000083F4708134B08E94E08C152089B5608765A08535E08326208126608F56908D95B
:206B00006D08BF7108A775089079087C7D086981085885084989083C8D0830910827950883
:206B20001F9908199D0815A10813A50813A90814AD0817B1081CB50823B9082CBD0837C156
:206B40000843C50852C90862CD0874D10889D5089FD908B6DD08D0E108ECE50809EA08293F
:206B6000EE084AF2086EF60893FA08BAFE08E302090E07093B0B096A0F099B1309CD170999
:206B8000021C09382009712409AB2809E82C09263109673509A93909ED3D093442097C4672
:206BA00009C64A09124F09615309B15709035C09576009AD6409066909606D09BC71091A9B
:206BC00076097B7A09DD7E09418309A88709108C097A9009E79409559909C69D0938A2094D
:206BE000ADA60923AB099CAF0918B40994B80913BD0994C10917C6099DCA0924CF09AED3DA
:206C00000939D809C7DC0956E109E8E5097CEA0912EF09ABF30945F809E1FC0980010A2197
:206C2000060AC40A0A690F0A10140AB9180A651D0A12220AC2260A742B0A28300ADF340AFD
:206C400097390A523E0A0F430ACE470A8F4C0A52510A18560AE05A0AAA5F0A76640A446953
:206C60000A156E0AE8720ABE770A957C0A6F810A4A860A298B0A09900AEC940AD1990AB8D4
:206C80009E0AA1A30A8DA80A7BAD0A6BB20A5EB70A53BC0A4AC10A43C60A3FCB0A3DD00ADB
:206CA0003DD50A40DA0A45DF0A4CE40A56E90A62EE0A70F30A81F80A94FD0AA9020BC10780
:206CC0000BDB0C0BF7110B16170B371C0B5B210B81260BA92B0BD3300B00360B303B0B62CF
:206CE000400B96450BCC4A0B05500B41550B7F5A0BBF5F0B02650B476A0B8F6F0BD9740BA5
:206D0000257A0B747F0BC6840B198A0B708F0BC9940B249A0B819F0BE2A40B44AA0BAAAF7F
